:020000040000FA
:0800000023008C018929000096
:080008002700FF3013069305E9
:100010002000720803193032023A03190A327208BA
:10002000013A03190932F3368C1C0232F317F40A31
:1000300026328C18F40A23328C1C2132741C1F3295
:10004000AA307306031D0232F6171932FA3073060E
:10005000031D023276171332FE307306031D02327F
:1000600076130D32203086007108860773088100F0
:10007000F10A0F30F1050332F4010B30F200F20304
:10008000090023009E1CFE339A000800303EF90050
:100090003A3079020318073E3A3E0800F800F03083
:1000A0007805890E462041200F30780546204120F2
:1000B000203041200800890BFE33080020000C1D71
:1000C000FE330C19FE330800F5000830F2008B11E6
:1000D000F40121000C1122000C1132305B202100B0
:1000E0008C1022008C1021000C155E208C10751CC9
:1000F00002328C14F40AF536F20BF7335E208C10C2
:10010000741C8C145E2021008C1420000C1DFE3306
:100110000630F80078080C05031DFC3378080C0540
:100120007806031DFB33270093018B150800ED3083
:1001300076136420761FFE3376130730760564202D
:10014000761FFE33080020008C1219300000890B46
:10015000A6288C1608000830F800700871060319EC
:10016000FC33F00A0F30F005F80BF73399304120DB
:10017000F00308007908F90AA72289080319080082
:10018000780603190232F90AF5337908A722080024
:100190007908F90AE3228908031908007806031987
:1001A0000232F90AF5337908E32208007908F90ADE
:1001B000F322890803190800780603190232F90AA4
:1001C000F5337908F3220800F80041307802031C67
:1001D000023278085A3C78080800E42003180632F6
:1001E000F61D0800F800F901BA200800F6190332DC
:1001F000761D203E08007619203E0800F800F9011F
:100200007908F90AF71CCB21F7187F220319080097
:10021000780603190232F90AF3337908F71CCB2167
:10022000F7187F2208002030840070088407000837
:10023000F03A03196232F03AE03A03196232E03AD6
:10024000E13A03195C32E13AFE2003195C329C3A30
:1002500003194F329C3A9F3A03194B329F3AA83AFE
:1002600003193B32A83A9D3A03192F329D3AA13A1D
:1002700003192B32A13A9E3A03192B329E3AA33A24
:1002800003192732A33AA53A03192D32A53A7F3A2A
:1002900003190A327F3A77193632761A0A32F61A79
:1002A0000E32ED2041202F32761AF61EFB33A320AA
:1002B0002A32F800F901D620031D41202432F8002B
:1002C000F901C820031D41201E327612771D7616D3
:1002D0001A32F612771DF6161632771914320430D8
:1002E000F6069720103277190E320230F606972064
:1002F0000A32F611771DF615063277150632AB2055
:100300000432F71402327711F710F00A0F30F005BB
:10031000080021006830990022008C1622001D156B
:1003200021000C128C1223009F1519309B00003005
:100330009C009E169D1727001215200025000C1505
:100340008C142400F9308C0020308400850160304A
:100350008001840A890BFC338501870120308400E9
:1003600084000B108B158B17FF306420761FFE3333
:10037000F61FFE3397204F3041204B3041200D3087
:1003800041200A304120700871060319FC33132103
:02039000FA333E
:0403920000340034FF
:0A0396000B001C34413432344234B1
:1003A0002134433423344434243445342B34463408
:1003B0003434473433344834433449343B344A3496
:1003C00042344B344B344C343A344D3431344E3463
:1003D00044344F344D345034153451342D34523468
:1003E0001B3453342C3454343C3455342A3456346E
:1003F0001D34573422345834353459341A345A346D
:1004000045343034163431341E34323426343334E7
:10041000253434342E343534363436343D343734A0
:100420003E343834463439340E3460344E342D344E
:1004300055343D345D345C3454345B345B345D346A
:100440004C343B345234273441342C3449342E3428
:100450007C342A3479342B34293420345A340D3402
:10046000663408340D34093476341B347734A534BB
:100470007034303469343134723432347A34333451
:100480006B34343473343534743436346C34373438
:10049000753438347D3439347C342A344A342F343A
:1004A00079342B347B342D3471342E345A340D345A
:1004B0000534803406348134043482340C3483347B
:1004C000033484340B348534833486340A348734DB
:1004D0000134883409348A3478348B3407348C34CA
:1004E00012349C3459349F3414349D3411349E3466
:1004F00012349C3459349F345834A83400340B00DF
:100500001434A1341F34A0342734A2341134A3345A
:100510002F34973475348D3472348E346B348F3479
:1005200074349034703495346C3491347D34933415
:100530007A34943471347F34693492344A342F34A9
:100540005A340D34123498347C34003400340B00A7
:100550003134213432344034333423343434243489
:100560003534253436345E343734263438342A343E
:1005700039342834303429342D345F343D342B342D
:1005800060347E34273422342C343C342E343E34D0
:100590002F343F345C347C343B343A345B347B342A
:1005A0005D347D348D34A9348E34AA348F34AB3429
:1005B0009034AC349134AD349234AE349334AF349F
:1005C0009434B03400340B0031345C343234403471
:1005D00033342F3436343F3437347C3439347B343D
:1005E00030347D3400340B00433411344A340A343F
:1005F0004D340D3408341234473407348D34B1345B
:100600008E34B2348F34B3349034B4349134B5343E
:0E0610009234B6349334B7349434B834003492
:020000040001F9
:02000E00E43FCD
:02001000FF1ED1
:00000001FF
