:020000040000FA
:0800000023008C0164008C292F
:080008002700FF3013069305E9
:100010002000720803193032023A03190A327208BA
:10002000013A03190932F3368C1C2B32F317F40A08
:1000300028328C18F40A25328C1C2732741C233287
:10004000AA307306031D0232F6171B32FA3073060C
:10005000031D023276171532FE307306031D02327D
:1000600076130F32203086007108860773088100EE
:10007000F10A0F30F10505328C180732F4010B300C
:10008000F200F2030900F7010900010023009E1CA1
:10009000FE339A0003010800303EF9003A3079023D
:1000A0000318073E3A3E0800890BFE330800200083
:1000B0000C1DFE330C19FE330800F5000830F20069
:1000C0008B11F40121000C1122000C11323054204C
:1000D00021008C1022008C1021000C1557208C1050
:1000E000751C02328C14F40AF536F20BF7335720E4
:1000F0008C10741C8C14572021008C1420000C1DB3
:10010000FE330630F80078080C05031DFC33780830
:100110000C057806031DFB33270093018B1508009F
:10012000ED3076135D20761FFE33761307307605AB
:100130005D20761FFE33080022008C1221305420EF
:100140008C1608000830F800700871060319FC339B
:10015000F00A0F30F005F80BF73399304620F00322
:1001600008007908F90AAA22890803190800780604
:1001700003190232F90AF5337908AA22080079082E
:10018000F90AE822890803190800780603190232DF
:10019000F90AF5337908E822080041307802031C97
:1001A00007325B30780203180332403078020800CF
:1001B0007908F90AF8228908031908007806031952
:1001C0000232F90AF5337908F8220800F8004130C4
:1001D0007802031C023278085A3C78080800E620AE
:1001E00003180632F61D0800F800F901B1200800D6
:1001F000F6190332761D203E08007619203E0800CD
:10020000F800F9017908F90AF71CC821F7187C22CF
:1002100003190800780603190232F90AF333790842
:10022000F71CC821F7187C220800203084007008D1
:1002300084070008F03A03196332F03AE03A0319F0
:100240006332E03AE13A03195D32E13A00210319E1
:100250005D329C3A031950329C3A9F3A03194C3252
:100260009F3AA83A03193C32A83A9D3A0319303212
:100270009D3AA13A03192C32A13A9E3A03192C3225
:100280009E3AA33A03192832A33AA53A03192E320B
:10029000A53A7F3A03190A327F3A77193732761A2C
:1002A0000B32F61A0F32EF20462030327F30761AAA
:1002B000F61EF3339C202A32F800F901CD20031DED
:1002C00046202432F800F901BF20031D46201E32CB
:1002D0007612771D76161A32F612771DF61616323A
:1002E000771914320430F6069020103277190E3246
:1002F0000230F60690200A32F611771DF615063206
:1003000077150632A2200432F71402327711F71063
:10031000F00A0F30F0050800210068309900210034
:10032000950122008C1622001D1521000C128C1242
:1003300023009F1519309B0000309C009E169D17CE
:1003400027001215250026308C002400F9308C007F
:1003500020308400850160308001840A890BFC33E1
:10036000850187012030840084000B108B158B17CA
:10037000FF305D20761FFE33F61FFE3390206400B1
:0C038000700871060319FB331521F933D6
:04038C000034003405
:100390000B001C344134323442342134433423348E
:1003A0004434243445342B344634343447343334E1
:1003B0004834433449343B344A3442344B344B346C
:1003C0004C343A344D3431344E3444344F344D345B
:1003D0005034153451342D3452341B3453342C34AE
:1003E00054343C3455342A3456341D345734223472
:1003F0005834353459341A345A3445343034163478
:1004000031341E34323426343334253434342E34EB
:100410003534363436343D3437343E34383446346B
:1004200039340E3460344E342D3455343D345D341B
:100430005C3454345B345B345D344C343B34523480
:10044000273441342C3449342E347C342A347934E2
:100450002B34293420345A340D34663408340D34A6
:10046000093476341B347734A5347034303469342D
:100470003134723432347A3433346B343434733448
:100480003534743436346C343734753438347D3420
:1004900039347C342A344A342F3479342B347B3445
:1004A0002D3471342E345A340D34053480340634EE
:1004B0008134043482340C348334033484340B3474
:1004C0008534833486340A348734013488340934DB
:1004D0008A3478348B3407348C3412349C34593455
:1004E0009F3414349D3411349E3412349C34593466
:1004F0009F345834A83400340B001434A1341F3412
:10050000A0342734A2341134A3342F3497347534F3
:100510008D3472348E346B348F3474349034703440
:1005200095346C3491347D3493347A34943471340A
:100530007F34693492344A342F345A340D341F34A2
:10054000BB342734BC345D34BD34123498347C342D
:10055000003400340B00313421343234403433342D
:100560002334343424343534253436345E3437344B
:10057000263438342A3439342834303429342D346C
:100580005F343D342B3460347E34273422342C34B1
:100590003C342E343E342F343F345C347C343B3492
:1005A0003A345B347B345D347D348D34A9348E34FD
:1005B000AA348F34AB349034AC349134AD349234AB
:1005C000AE349334AF349434B0347F34BF34003419
:1005D0000B0031345C343234403433342F3436340D
:1005E0003F3437347C3439347B3430347D34003418
:1005F0000B000834BA348D34B1348E34B2348F34B5
:10060000B3349034B4349134B5349234B634933432
:0C061000B7349434B8347F34B93400346B
:020000040001F9
:02000E00FC3FB5
:02001000FF1ED1
:00000001FF
